{
  "contractName": "transactions",
  "abi": [
    {
      "anonymous": false,
      "inputs": [
        {
          "indexed": true,
          "internalType": "address",
          "name": "from",
          "type": "address"
        },
        {
          "indexed": true,
          "internalType": "address",
          "name": "to",
          "type": "address"
        },
        {
          "indexed": false,
          "internalType": "uint256",
          "name": "value",
          "type": "uint256"
        }
      ],
      "name": "Transfer",
      "type": "event"
    },
    {
      "stateMutability": "payable",
      "type": "receive",
      "payable": true
    },
    {
      "inputs": [
        {
          "internalType": "address payable",
          "name": "_to",
          "type": "address"
        }
      ],
      "name": "transfers",
      "outputs": [],
      "stateMutability": "payable",
      "type": "function",
      "payable": true
    }
  ],
  "bytecode": "0x608060405234801561001057600080fd5b50610318806100206000396000f3fe6080604052600436106100225760003560e01c8063bdff43ee146100935761008e565b3661008e573073ffffffffffffffffffffffffffffffffffffffff163373ffffffffffffffffffffffffffffffffffffffff167fddf252ad1be2c89b69c2b068fc378daa952ba7f163c4a11628f55a4df523b3ef3460405161008491906101ba565b60405180910390a3005b600080fd5b6100ad60048036038101906100a89190610238565b6100af565b005b600034116100f2576040517f08c379a00000000000000000000000000000000000000000000000000000000081526004016100e9906102c2565b60405180910390fd5b8073ffffffffffffffffffffffffffffffffffffffff166108fc349081150290604051600060405180830381858888f19350505050158015610138573d6000803e3d6000fd5b508073ffffffffffffffffffffffffffffffffffffffff163373ffffffffffffffffffffffffffffffffffffffff167fddf252ad1be2c89b69c2b068fc378daa952ba7f163c4a11628f55a4df523b3ef3460405161019691906101ba565b60405180910390a350565b6000819050919050565b6101b4816101a1565b82525050565b60006020820190506101cf60008301846101ab565b92915050565b600080fd5b600073ffffffffffffffffffffffffffffffffffffffff82169050919050565b6000610205826101da565b9050919050565b610215816101fa565b811461022057600080fd5b50565b6000813590506102328161020c565b92915050565b60006020828403121561024e5761024d6101d5565b5b600061025c84828501610223565b91505092915050565b600082825260208201905092915050565b7f53656e6420736f6d652065746865720000000000000000000000000000000000600082015250565b60006102ac600f83610265565b91506102b782610276565b602082019050919050565b600060208201905081810360008301526102db8161029f565b905091905056fea26469706673582212201bba58880a0bdad1bc3bf58416710e655c3e707edff70f81eeb1dca39651520264736f6c63430008130033",
  "immutableReferences": {},
  "source": "// SPDX-License-Identifier: MIT\r\npragma solidity 0.8.19;\r\ncontract transactions {\r\n    event Transfer(address indexed from, address indexed to, uint256 value);\r\n    function transfers(address payable _to) public payable {\r\n        require(msg.value > 0, \"Send some ether\");\r\n        _to.transfer(msg.value);\r\n        emit Transfer(msg.sender, _to, msg.value);\r\n    }\r\n    receive() external payable {\r\n        emit Transfer(msg.sender, address(this), msg.value);\r\n    }\r\n}\r\n",
  "sourcePath": "C:\\Users\\shailesh_tagadghar\\Music\\Block Chain\\Practical_12\\contracts\\Transaction.sol",
  "compiler": {
    "name": "solc",
    "version": "0.8.19+commit.7dd6d404.Emscripten.clang"
  },
  "schemaVersion": "3.4.16",
  "updatedAt": "2024-10-25T03:05:25.904Z",
  "networkType": "ethereum",
  "devdoc": {
    "kind": "dev",
    "methods": {},
    "version": 1
  },
  "userdoc": {
    "kind": "user",
    "methods": {},
    "version": 1
  }
}