{
  "contractName": "voting",
  "abi": [
    {
      "inputs": [],
      "stateMutability": "nonpayable",
      "type": "constructor"
    },
    {
      "inputs": [
        {
          "internalType": "string",
          "name": "",
          "type": "string"
        }
      ],
      "name": "c",
      "outputs": [
        {
          "internalType": "uint256",
          "name": "",
          "type": "uint256"
        }
      ],
      "stateMutability": "view",
      "type": "function",
      "constant": true
    },
    {
      "inputs": [
        {
          "internalType": "uint256",
          "name": "",
          "type": "uint256"
        }
      ],
      "name": "cn",
      "outputs": [
        {
          "internalType": "string",
          "name": "",
          "type": "string"
        }
      ],
      "stateMutability": "view",
      "type": "function",
      "constant": true
    },
    {
      "inputs": [
        {
          "internalType": "address",
          "name": "",
          "type": "address"
        }
      ],
      "name": "voters",
      "outputs": [
        {
          "internalType": "bool",
          "name": "",
          "type": "bool"
        }
      ],
      "stateMutability": "view",
      "type": "function",
      "constant": true
    },
    {
      "inputs": [
        {
          "internalType": "string",
          "name": "caNm",
          "type": "string"
        }
      ],
      "name": "vote",
      "outputs": [],
      "stateMutability": "nonpayable",
      "type": "function"
    },
    {
      "inputs": [
        {
          "internalType": "string",
          "name": "canM",
          "type": "string"
        }
      ],
      "name": "getVoterC",
      "outputs": [
        {
          "internalType": "uint256",
          "name": "",
          "type": "uint256"
        }
      ],
      "stateMutability": "view",
      "type": "function",
      "constant": true
    },
    {
      "inputs": [],
      "name": "getWinner",
      "outputs": [
        {
          "internalType": "string",
          "name": "",
          "type": "string"
        }
      ],
      "stateMutability": "view",
      "type": "function",
      "constant": true
    },
    {
      "inputs": [
        {
          "internalType": "string",
          "name": "canM",
          "type": "string"
        }
      ],
      "name": "showPercentage",
      "outputs": [
        {
          "internalType": "uint256",
          "name": "",
          "type": "uint256"
        }
      ],
      "stateMutability": "view",
      "type": "function",
      "constant": true
    }
  ],
  "bytecode": "0x60806040523480156200001157600080fd5b5060405180606001604052806040518060400160405280600481526020017f43616e310000000000000000000000000000000000000000000000000000000081525081526020016040518060400160405280600481526020017f43616e320000000000000000000000000000000000000000000000000000000081525081526020016040518060400160405280600481526020017f43616e33000000000000000000000000000000000000000000000000000000008152508152506002906003620000de929190620000e5565b5062000533565b82805482825590600052602060002090810192821562000132579160200282015b82811115620001315782518290816200012091906200044c565b509160200191906001019062000106565b5b50905062000141919062000145565b5090565b5b808211156200016957600081816200015f91906200016d565b5060010162000146565b5090565b5080546200017b906200023b565b6000825580601f106200018f5750620001b0565b601f016020900490600052602060002090810190620001af9190620001b3565b5b50565b5b80821115620001ce576000816000905550600101620001b4565b5090565b600081519050919050565b7f4e487b7100000000000000000000000000000000000000000000000000000000600052604160045260246000fd5b7f4e487b7100000000000000000000000000000000000000000000000000000000600052602260045260246000fd5b600060028204905060018216806200025457607f821691505b6020821081036200026a57620002696200020c565b5b50919050565b60008190508160005260206000209050919050565b60006020601f8301049050919050565b600082821b905092915050565b600060088302620002d47fffffffffffffffffffffffffffffffffffffffffffffffffffffffffffffffff8262000295565b620002e0868362000295565b95508019841693508086168417925050509392505050565b6000819050919050565b6000819050919050565b60006200032d620003276200032184620002f8565b62000302565b620002f8565b9050919050565b6000819050919050565b62000349836200030c565b62000361620003588262000334565b848454620002a2565b825550505050565b600090565b6200037862000369565b620003858184846200033e565b505050565b5b81811015620003ad57620003a16000826200036e565b6001810190506200038b565b5050565b601f821115620003fc57620003c68162000270565b620003d18462000285565b81016020851015620003e1578190505b620003f9620003f08562000285565b8301826200038a565b50505b505050565b600082821c905092915050565b6000620004216000198460080262000401565b1980831691505092915050565b60006200043c83836200040e565b9150826002028217905092915050565b6200045782620001d2565b67ffffffffffffffff811115620004735762000472620001dd565b5b6200047f82546200023b565b6200048c828285620003b1565b600060209050601f831160018114620004c45760008415620004af578287015190505b620004bb85826200042e565b8655506200052b565b601f198416620004d48662000270565b60005b82811015620004fe57848901518255600182019150602085019450602081019050620004d7565b868310156200051e57848901516200051a601f8916826200040e565b8355505b6001600288020188555050505b505050505050565b610f7280620005436000396000f3fe608060405234801561001057600080fd5b506004361061007d5760003560e01c8063932610101161005b5780639326101014610100578063a3ec138d14610130578063f58430b614610160578063fc36e15b146101905761007d565b806321de8df51461008257806375210b33146100b25780638e7ea5b2146100e2575b600080fd5b61009c60048036038101906100979190610943565b6101ac565b6040516100a991906109a5565b60405180910390f35b6100cc60048036038101906100c79190610943565b6101da565b6040516100d991906109a5565b60405180910390f35b6100ea610201565b6040516100f79190610a3f565b60405180910390f35b61011a60048036038101906101159190610943565b610442565b60405161012791906109a5565b60405180910390f35b61014a60048036038101906101459190610abf565b610553565b6040516101579190610b07565b60405180910390f35b61017a60048036038101906101759190610b4e565b610573565b6040516101879190610a3f565b60405180910390f35b6101aa60048036038101906101a59190610943565b61061f565b005b6000818051602081018201805184825260208301602085012081835280955050505050506000915090505481565b600080826040516101eb9190610bb7565b9081526020016040518091039020549050919050565b6060806000805b60028054905081101561043957816102c56002838154811061022d5761022c610bce565b5b90600052602060002001805461024290610c2c565b80601f016020809104026020016040519081016040528092919081815260200182805461026e90610c2c565b80156102bb5780601f10610290576101008083540402835291602001916102bb565b820191906000526020600020905b81548152906001019060200180831161029e57829003601f168201915b50505050506101da565b11156104265761037a600282815481106102e2576102e1610bce565b5b9060005260206000200180546102f790610c2c565b80601f016020809104026020016040519081016040528092919081815260200182805461032390610c2c565b80156103705780601f1061034557610100808354040283529160200191610370565b820191906000526020600020905b81548152906001019060200180831161035357829003601f168201915b50505050506101da565b9150600281815481106103905761038f610bce565b5b9060005260206000200180546103a590610c2c565b80601f01602080910402602001604051908101604052809291908181526020018280546103d190610c2c565b801561041e5780601f106103f35761010080835404028352916020019161041e565b820191906000526020600020905b81548152906001019060200180831161040157829003601f168201915b505050505092505b808061043190610c8c565b915050610208565b50819250505090565b60008060005b600280549050811015610524576105046002828154811061046c5761046b610bce565b5b90600052602060002001805461048190610c2c565b80601f01602080910402602001604051908101604052809291908181526020018280546104ad90610c2c565b80156104fa5780601f106104cf576101008083540402835291602001916104fa565b820191906000526020600020905b8154815290600101906020018083116104dd57829003601f168201915b50505050506101da565b8261050f9190610cd4565b9150808061051c90610c8c565b915050610448565b5060008160646105349190610d37565b61053d856101da565b6105479190610d68565b90508092505050919050565b60016020528060005260406000206000915054906101000a900460ff1681565b6002818154811061058357600080fd5b90600052602060002001600091509050805461059e90610c2c565b80601f01602080910402602001604051908101604052809291908181526020018280546105ca90610c2c565b80156106175780601f106105ec57610100808354040283529160200191610617565b820191906000526020600020905b8154815290600101906020018083116105fa57829003601f168201915b505050505081565b600160003373ffffffffffffffffffffffffffffffffffffffff1673ffffffffffffffffffffffffffffffffffffffff16815260200190815260200160002060009054906101000a900460ff16156106ac576040517f08c379a00000000000000000000000000000000000000000000000000000000081526004016106a390610df6565b60405180910390fd5b6000805b60028054905081101561071957600281815481106106d1576106d0610bce565b5b906000526020600020016040516106e89190610eb9565b60405180910390208380519060200120036107065760019150610719565b808061071190610c8c565b9150506106b0565b508061075a576040517f08c379a000000000000000000000000000000000000000000000000000000000815260040161075190610f1c565b60405180910390fd5b60008260405161076a9190610bb7565b9081526020016040518091039020600081548092919061078990610c8c565b919050555060018060003373ffffffffffffffffffffffffffffffffffffffff1673ffffffffffffffffffffffffffffffffffffffff16815260200190815260200160002060006101000a81548160ff0219169083151502179055505050565b6000604051905090565b600080fd5b600080fd5b600080fd5b600080fd5b6000601f19601f8301169050919050565b7f4e487b7100000000000000000000000000000000000000000000000000000000600052604160045260246000fd5b61085082610807565b810181811067ffffffffffffffff8211171561086f5761086e610818565b5b80604052505050565b60006108826107e9565b905061088e8282610847565b919050565b600067ffffffffffffffff8211156108ae576108ad610818565b5b6108b782610807565b9050602081019050919050565b82818337600083830152505050565b60006108e66108e184610893565b610878565b90508281526020810184848401111561090257610901610802565b5b61090d8482856108c4565b509392505050565b600082601f83011261092a576109296107fd565b5b813561093a8482602086016108d3565b91505092915050565b600060208284031215610959576109586107f3565b5b600082013567ffffffffffffffff811115610977576109766107f8565b5b61098384828501610915565b91505092915050565b6000819050919050565b61099f8161098c565b82525050565b60006020820190506109ba6000830184610996565b92915050565b600081519050919050565b600082825260208201905092915050565b60005b838110156109fa5780820151818401526020810190506109df565b60008484015250505050565b6000610a11826109c0565b610a1b81856109cb565b9350610a2b8185602086016109dc565b610a3481610807565b840191505092915050565b60006020820190508181036000830152610a598184610a06565b905092915050565b600073ffffffffffffffffffffffffffffffffffffffff82169050919050565b6000610a8c82610a61565b9050919050565b610a9c81610a81565b8114610aa757600080fd5b50565b600081359050610ab981610a93565b92915050565b600060208284031215610ad557610ad46107f3565b5b6000610ae384828501610aaa565b91505092915050565b60008115159050919050565b610b0181610aec565b82525050565b6000602082019050610b1c6000830184610af8565b92915050565b610b2b8161098c565b8114610b3657600080fd5b50565b600081359050610b4881610b22565b92915050565b600060208284031215610b6457610b636107f3565b5b6000610b7284828501610b39565b91505092915050565b600081905092915050565b6000610b91826109c0565b610b9b8185610b7b565b9350610bab8185602086016109dc565b80840191505092915050565b6000610bc38284610b86565b915081905092915050565b7f4e487b7100000000000000000000000000000000000000000000000000000000600052603260045260246000fd5b7f4e487b7100000000000000000000000000000000000000000000000000000000600052602260045260246000fd5b60006002820490506001821680610c4457607f821691505b602082108103610c5757610c56610bfd565b5b50919050565b7f4e487b7100000000000000000000000000000000000000000000000000000000600052601160045260246000fd5b6000610c978261098c565b91507fffffffffffffffffffffffffffffffffffffffffffffffffffffffffffffffff8203610cc957610cc8610c5d565b5b600182019050919050565b6000610cdf8261098c565b9150610cea8361098c565b9250828201905080821115610d0257610d01610c5d565b5b92915050565b7f4e487b7100000000000000000000000000000000000000000000000000000000600052601260045260246000fd5b6000610d428261098c565b9150610d4d8361098c565b925082610d5d57610d5c610d08565b5b828204905092915050565b6000610d738261098c565b9150610d7e8361098c565b9250828202610d8c8161098c565b91508282048414831517610da357610da2610c5d565b5b5092915050565b7f416c726561647920566f74696e6720446f6e652e000000000000000000000000600082015250565b6000610de06014836109cb565b9150610deb82610daa565b602082019050919050565b60006020820190508181036000830152610e0f81610dd3565b9050919050565b600081905092915050565b60008190508160005260206000209050919050565b60008154610e4381610c2c565b610e4d8186610e16565b94506001821660008114610e685760018114610e7d57610eb0565b60ff1983168652811515820286019350610eb0565b610e8685610e21565b60005b83811015610ea857815481890152600182019150602081019050610e89565b838801955050505b50505092915050565b6000610ec58284610e36565b915081905092915050565b7f43616e64696461746520646f6573206e6f742065786973742e00000000000000600082015250565b6000610f066019836109cb565b9150610f1182610ed0565b602082019050919050565b60006020820190508181036000830152610f3581610ef9565b905091905056fea264697066735822122068a179ab7be003f20e92e32a6e8420a716d7d1bd23d3f93d1a06c27bb0b5b1db64736f6c63430008130033",
  "immutableReferences": {},
  "source": "// SPDX-License-Identifier: MIT\r\npragma solidity 0.8.19;\r\ncontract voting {\r\n    mapping(string => uint256) public c;\r\n    mapping(address => bool) public voters;\r\n    string[] public cn;\r\n    constructor() {\r\n        cn = [\"Can1\", \"Can2\", \"Can3\"];\r\n    }\r\n    function vote(string memory caNm) public {\r\n        require(!voters[msg.sender], \"Already Voting Done.\");\r\n        bool ce = false;\r\n        for (uint256 i = 0; i < cn.length; i++) {\r\n            if (keccak256(bytes(caNm)) == keccak256(bytes(cn[i]))) {\r\n                ce = true;\r\n                break;\r\n            }\r\n        }\r\n        require(ce, \"Candidate does not exist.\");\r\n        c[caNm]++;\r\n        voters[msg.sender] = true;\r\n    }\r\n    function getVoterC(string memory canM) public view returns (uint256) {\r\n        return c[canM];\r\n    }\r\n    function getWinner() public view returns (string memory) {\r\n        string memory winner;\r\n        uint256 temp = 0;\r\n        for (uint256 j = 0; j < cn.length; j++) {\r\n            if (getVoterC(cn[j]) > temp) {\r\n                temp = getVoterC(cn[j]);\r\n                winner = cn[j];\r\n            }\r\n        }\r\n        return winner;\r\n    }\r\n    function showPercentage(string memory canM) public view returns (uint256) {\r\n        uint256 total;\r\n        for (uint256 i = 0; i < cn.length; i++) {\r\n            total = total + getVoterC(cn[i]);\r\n        }\r\n        uint256 per = getVoterC(canM) * (100 / total);\r\n        return per;\r\n    }\r\n}\r\n",
  "sourcePath": "C:\\Users\\shailesh_tagadghar\\Music\\Block Chain\\Practical_12\\contracts\\voting.sol",
  "compiler": {
    "name": "solc",
    "version": "0.8.19+commit.7dd6d404.Emscripten.clang"
  },
  "schemaVersion": "3.4.16",
  "updatedAt": "2024-10-25T03:11:42.097Z",
  "networkType": "ethereum",
  "devdoc": {
    "kind": "dev",
    "methods": {},
    "version": 1
  },
  "userdoc": {
    "kind": "user",
    "methods": {},
    "version": 1
  }
}